{
  "contractName": "MasoomContract",
  "abi": [
    {
      "constant": true,
      "inputs": [
        {
          "name": "",
          "type": "bytes32"
        }
      ],
      "name": "names",
      "outputs": [
        {
          "name": "position",
          "type": "uint256"
        },
        {
          "name": "exists",
          "type": "bool"
        },
        {
          "name": "size",
          "type": "uint256"
        },
        {
          "name": "name",
          "type": "string"
        }
      ],
      "payable": false,
      "stateMutability": "view",
      "type": "function"
    },
    {
      "constant": true,
      "inputs": [
        {
          "name": "",
          "type": "address"
        }
      ],
      "name": "doctorDetails",
      "outputs": [
        {
          "name": "doctorAddress",
          "type": "address"
        },
        {
          "name": "name",
          "type": "string"
        },
        {
          "name": "registerationId",
          "type": "string"
        },
        {
          "name": "hospital",
          "type": "string"
        },
        {
          "name": "college",
          "type": "string"
        },
        {
          "name": "field",
          "type": "string"
        },
        {
          "name": "isVerified",
          "type": "bool"
        }
      ],
      "payable": false,
      "stateMutability": "view",
      "type": "function"
    },
    {
      "constant": true,
      "inputs": [
        {
          "name": "",
          "type": "uint256"
        }
      ],
      "name": "getNames",
      "outputs": [
        {
          "name": "position",
          "type": "uint256"
        },
        {
          "name": "exists",
          "type": "bool"
        },
        {
          "name": "size",
          "type": "uint256"
        },
        {
          "name": "name",
          "type": "string"
        }
      ],
      "payable": false,
      "stateMutability": "view",
      "type": "function"
    },
    {
      "constant": true,
      "inputs": [
        {
          "name": "",
          "type": "address"
        }
      ],
      "name": "voterDetails",
      "outputs": [
        {
          "name": "voterAddress",
          "type": "address"
        },
        {
          "name": "name",
          "type": "string"
        },
        {
          "name": "aadhar",
          "type": "string"
        },
        {
          "name": "constituency",
          "type": "uint256"
        },
        {
          "name": "hasVoted",
          "type": "bool"
        },
        {
          "name": "isVerified",
          "type": "bool"
        }
      ],
      "payable": false,
      "stateMutability": "view",
      "type": "function"
    },
    {
      "constant": true,
      "inputs": [
        {
          "name": "",
          "type": "uint256"
        }
      ],
      "name": "candidateDetails",
      "outputs": [
        {
          "name": "name",
          "type": "string"
        },
        {
          "name": "party",
          "type": "string"
        },
        {
          "name": "manifesto",
          "type": "string"
        },
        {
          "name": "voteCount",
          "type": "uint256"
        },
        {
          "name": "constituency",
          "type": "uint256"
        },
        {
          "name": "candidateId",
          "type": "uint256"
        }
      ],
      "payable": false,
      "stateMutability": "view",
      "type": "function"
    },
    {
      "constant": true,
      "inputs": [
        {
          "name": "",
          "type": "uint256"
        }
      ],
      "name": "doctors",
      "outputs": [
        {
          "name": "",
          "type": "address"
        }
      ],
      "payable": false,
      "stateMutability": "view",
      "type": "function"
    },
    {
      "constant": true,
      "inputs": [],
      "name": "owner",
      "outputs": [
        {
          "name": "",
          "type": "address"
        }
      ],
      "payable": false,
      "stateMutability": "view",
      "type": "function"
    },
    {
      "constant": true,
      "inputs": [
        {
          "name": "",
          "type": "uint256"
        },
        {
          "name": "",
          "type": "uint256"
        }
      ],
      "name": "array",
      "outputs": [
        {
          "name": "",
          "type": "uint256"
        }
      ],
      "payable": false,
      "stateMutability": "view",
      "type": "function"
    },
    {
      "constant": true,
      "inputs": [
        {
          "name": "",
          "type": "uint256"
        }
      ],
      "name": "voters",
      "outputs": [
        {
          "name": "",
          "type": "address"
        }
      ],
      "payable": false,
      "stateMutability": "view",
      "type": "function"
    },
    {
      "inputs": [],
      "payable": false,
      "stateMutability": "nonpayable",
      "type": "constructor"
    },
    {
      "constant": true,
      "inputs": [],
      "name": "getOwner",
      "outputs": [
        {
          "name": "",
          "type": "address"
        }
      ],
      "payable": false,
      "stateMutability": "view",
      "type": "function"
    },
    {
      "constant": false,
      "inputs": [
        {
          "name": "_name",
          "type": "string"
        },
        {
          "name": "_party",
          "type": "string"
        },
        {
          "name": "_manifesto",
          "type": "string"
        },
        {
          "name": "_constituency",
          "type": "uint256"
        }
      ],
      "name": "addCandidate",
      "outputs": [],
      "payable": false,
      "stateMutability": "nonpayable",
      "type": "function"
    },
    {
      "constant": true,
      "inputs": [],
      "name": "getCandidateNumber",
      "outputs": [
        {
          "name": "",
          "type": "uint256"
        }
      ],
      "payable": false,
      "stateMutability": "view",
      "type": "function"
    },
    {
      "constant": false,
      "inputs": [
        {
          "name": "_name",
          "type": "string"
        },
        {
          "name": "_aadhar",
          "type": "string"
        },
        {
          "name": "_constituency",
          "type": "uint256"
        }
      ],
      "name": "requestVoter",
      "outputs": [],
      "payable": false,
      "stateMutability": "nonpayable",
      "type": "function"
    },
    {
      "constant": true,
      "inputs": [],
      "name": "getVoterCount",
      "outputs": [
        {
          "name": "",
          "type": "uint256"
        }
      ],
      "payable": false,
      "stateMutability": "view",
      "type": "function"
    },
    {
      "constant": false,
      "inputs": [
        {
          "name": "_address",
          "type": "address"
        }
      ],
      "name": "verifyVoter",
      "outputs": [],
      "payable": false,
      "stateMutability": "nonpayable",
      "type": "function"
    },
    {
      "constant": false,
      "inputs": [
        {
          "name": "candidateId",
          "type": "uint256"
        }
      ],
      "name": "vote",
      "outputs": [],
      "payable": false,
      "stateMutability": "nonpayable",
      "type": "function"
    },
    {
      "constant": false,
      "inputs": [],
      "name": "startElection",
      "outputs": [],
      "payable": false,
      "stateMutability": "nonpayable",
      "type": "function"
    },
    {
      "constant": false,
      "inputs": [],
      "name": "endElection",
      "outputs": [],
      "payable": false,
      "stateMutability": "nonpayable",
      "type": "function"
    },
    {
      "constant": true,
      "inputs": [],
      "name": "getStart",
      "outputs": [
        {
          "name": "",
          "type": "bool"
        }
      ],
      "payable": false,
      "stateMutability": "view",
      "type": "function"
    },
    {
      "constant": true,
      "inputs": [],
      "name": "getEnd",
      "outputs": [
        {
          "name": "",
          "type": "bool"
        }
      ],
      "payable": false,
      "stateMutability": "view",
      "type": "function"
    },
    {
      "constant": false,
      "inputs": [
        {
          "name": "_name",
          "type": "string"
        },
        {
          "name": "_registerationId",
          "type": "string"
        },
        {
          "name": "_hospital",
          "type": "string"
        },
        {
          "name": "_college",
          "type": "string"
        },
        {
          "name": "_field",
          "type": "string"
        }
      ],
      "name": "requestDoctor",
      "outputs": [],
      "payable": false,
      "stateMutability": "nonpayable",
      "type": "function"
    },
    {
      "constant": true,
      "inputs": [],
      "name": "getDoctorCount",
      "outputs": [
        {
          "name": "",
          "type": "uint256"
        }
      ],
      "payable": false,
      "stateMutability": "view",
      "type": "function"
    },
    {
      "constant": false,
      "inputs": [
        {
          "name": "_address",
          "type": "address"
        }
      ],
      "name": "verifyDoctor",
      "outputs": [],
      "payable": false,
      "stateMutability": "nonpayable",
      "type": "function"
    },
    {
      "constant": false,
      "inputs": [
        {
          "name": "_med1",
          "type": "bytes32"
        },
        {
          "name": "_med2",
          "type": "bytes32"
        },
        {
          "name": "_disease",
          "type": "bytes32"
        }
      ],
      "name": "addAlternative",
      "outputs": [],
      "payable": false,
      "stateMutability": "nonpayable",
      "type": "function"
    },
    {
      "constant": true,
      "inputs": [
        {
          "name": "b",
          "type": "bytes1"
        }
      ],
      "name": "char",
      "outputs": [
        {
          "name": "c",
          "type": "bytes1"
        }
      ],
      "payable": false,
      "stateMutability": "view",
      "type": "function"
    },
    {
      "constant": true,
      "inputs": [
        {
          "name": "b32",
          "type": "bytes32"
        }
      ],
      "name": "bytes32string",
      "outputs": [
        {
          "name": "out",
          "type": "string"
        }
      ],
      "payable": false,
      "stateMutability": "view",
      "type": "function"
    }
  ],
  "bytecode": "0x60806040526000600a5534801561001557600080fd5b50336000806101000a81548173ffffffffffffffffffffffffffffffffffffffff021916908373ffffffffffffffffffffffffffffffffffffffff160217905550600060018190555060006002819055506000600360006101000a81548160ff0219169083151502179055506000600360016101000a81548160ff0219169083151502179055506000600481905550612f6f806100b36000396000f300608060405260043610610154576000357c0100000000000000000000000000000000000000000000000000000000900463ffffffff1680630121b93f1461015957806309bd09501461018657806311174a29146101c957806320c38e2b146101f4578063252fb38d146102b75780632ed226ad14610361578063364dff251461060b5780635718e17b14610636578063578a3a4f146106f55780635938750d1461074257806359f78468146108ba5780636247e532146108d157806362d73eb814610a64578063699d589114610a7b57806369f9ad2f14610bfc5780636efb1b8414610ca357806379111c1c14610d105780637d9cf19614610d3b578063893d20e814610df45780638da5cb5b14610e4b5780639f05a36d14610ea2578063baa7d1f714610ed1578063c5292c6714610f1c578063d6aadfba14610f4b578063d80cb05c1461104a578063da58c7d91461108d575b600080fd5b34801561016557600080fd5b50610184600480360381019080803590602001909291905050506110fa565b005b34801561019257600080fd5b506101c7600480360381019080803573ffffffffffffffffffffffffffffffffffffffff169060200190929190505050611285565b005b3480156101d557600080fd5b506101de61133e565b6040518082815260200191505060405180910390f35b34801561020057600080fd5b506102236004803603810190808035600019169060200190929190505050611348565b604051808581526020018415151515815260200183815260200180602001828103825283818151815260200191508051906020019080838360005b8381101561027957808201518184015260208101905061025e565b50505050905090810190601f1680156102a65780820380516001836020036101000a031916815260200191505b509550505050505060405180910390f35b3480156102c357600080fd5b506102e6600480360381019080803560001916906020019092919050505061141d565b6040518080602001828103825283818151815260200191508051906020019080838360005b8381101561032657808201518184015260208101905061030b565b50505050905090810190601f1680156103535780820380516001836020036101000a031916815260200191505b509250505060405180910390f35b34801561036d57600080fd5b506103a2600480360381019080803573ffffffffffffffffffffffffffffffffffffffff169060200190929190505050611615565b604051808873ffffffffffffffffffffffffffffffffffffffff1673ffffffffffffffffffffffffffffffffffffffff16815260200180602001806020018060200180602001806020018715151515815260200186810386528c818151815260200191508051906020019080838360005b8381101561042e578082015181840152602081019050610413565b50505050905090810190601f16801561045b5780820380516001836020036101000a031916815260200191505b5086810385528b818151815260200191508051906020019080838360005b83811015610494578082015181840152602081019050610479565b50505050905090810190601f1680156104c15780820380516001836020036101000a031916815260200191505b5086810384528a818151815260200191508051906020019080838360005b838110156104fa5780820151818401526020810190506104df565b50505050905090810190601f1680156105275780820380516001836020036101000a031916815260200191505b50868103835289818151815260200191508051906020019080838360005b83811015610560578082015181840152602081019050610545565b50505050905090810190601f16801561058d5780820380516001836020036101000a031916815260200191505b50868103825288818151815260200191508051906020019080838360005b838110156105c65780820151818401526020810190506105ab565b50505050905090810190601f1680156105f35780820380516001836020036101000a031916815260200191505b509c5050505050505050505050505060405180910390f35b34801561061757600080fd5b5061062061197c565b6040518082815260200191505060405180910390f35b34801561064257600080fd5b5061066160048036038101908080359060200190929190505050611986565b604051808581526020018415151515815260200183815260200180602001828103825283818151815260200191508051906020019080838360005b838110156106b757808201518184015260208101905061069c565b50505050905090810190601f1680156106e45780820380516001836020036101000a031916815260200191505b509550505050505060405180910390f35b34801561070157600080fd5b50610740600480360381019080803560001916906020019092919080356000191690602001909291908035600019169060200190929190505050611a5b565b005b34801561074e57600080fd5b50610783600480360381019080803573ffffffffffffffffffffffffffffffffffffffff1690602001909291905050506120bf565b604051808773ffffffffffffffffffffffffffffffffffffffff1673ffffffffffffffffffffffffffffffffffffffff16815260200180602001806020018681526020018515151515815260200184151515158152602001838103835288818151815260200191508051906020019080838360005b838110156108135780820151818401526020810190506107f8565b50505050905090810190601f1680156108405780820380516001836020036101000a031916815260200191505b50838103825287818151815260200191508051906020019080838360005b8381101561087957808201518184015260208101905061085e565b50505050905090810190601f1680156108a65780820380516001836020036101000a031916815260200191505b509850505050505050505060405180910390f35b3480156108c657600080fd5b506108cf612265565b005b3480156108dd57600080fd5b506108fc600480360381019080803590602001909291905050506122f8565b6040518080602001806020018060200187815260200186815260200185815260200184810384528a818151815260200191508051906020019080838360005b8381101561095657808201518184015260208101905061093b565b50505050905090810190601f1680156109835780820380516001836020036101000a031916815260200191505b50848103835289818151815260200191508051906020019080838360005b838110156109bc5780820151818401526020810190506109a1565b50505050905090810190601f1680156109e95780820380516001836020036101000a031916815260200191505b50848103825288818151815260200191508051906020019080838360005b83811015610a22578082015181840152602081019050610a07565b50505050905090810190601f168015610a4f5780820380516001836020036101000a031916815260200191505b50995050505050505050505060405180910390f35b348015610a7057600080fd5b50610a796124fc565b005b348015610a8757600080fd5b50610bfa600480360381019080803590602001908201803590602001908080601f0160208091040260200160405190810160405280939291908181526020018383808284378201915050505050509192919290803590602001908201803590602001908080601f0160208091040260200160405190810160405280939291908181526020018383808284378201915050505050509192919290803590602001908201803590602001908080601f0160208091040260200160405190810160405280939291908181526020018383808284378201915050505050509192919290803590602001908201803590602001908080601f0160208091040260200160405190810160405280939291908181526020018383808284378201915050505050509192919290803590602001908201803590602001908080601f016020809104026020016040519081016040528093929190818152602001838380828437820191505050505050919291929050505061258f565b005b348015610c0857600080fd5b50610c4960048036038101908080357effffffffffffffffffffffffffffffffffffffffffffffffffffffffffffff191690602001909291905050506127a0565b60405180827effffffffffffffffffffffffffffffffffffffffffffffffffffffffffffff19167effffffffffffffffffffffffffffffffffffffffffffffffffffffffffffff1916815260200191505060405180910390f35b348015610caf57600080fd5b50610cce60048036038101908080359060200190929190505050612890565b604051808273ffffffffffffffffffffffffffffffffffffffff1673ffffffffffffffffffffffffffffffffffffffff16815260200191505060405180910390f35b348015610d1c57600080fd5b50610d256128ce565b6040518082815260200191505060405180910390f35b348015610d4757600080fd5b50610df2600480360381019080803590602001908201803590602001908080601f0160208091040260200160405190810160405280939291908181526020018383808284378201915050505050509192919290803590602001908201803590602001908080601f0160208091040260200160405190810160405280939291908181526020018383808284378201915050505050509192919290803590602001909291905050506128d8565b005b348015610e0057600080fd5b50610e09612ab7565b604051808273ffffffffffffffffffffffffffffffffffffffff1673ffffffffffffffffffffffffffffffffffffffff16815260200191505060405180910390f35b348015610e5757600080fd5b50610e60612ae0565b604051808273ffffffffffffffffffffffffffffffffffffffff1673ffffffffffffffffffffffffffffffffffffffff16815260200191505060405180910390f35b348015610eae57600080fd5b50610eb7612b05565b604051808215151515815260200191505060405180910390f35b348015610edd57600080fd5b50610f066004803603810190808035906020019092919080359060200190929190505050612b1c565b6040518082815260200191505060405180910390f35b348015610f2857600080fd5b50610f31612b4c565b604051808215151515815260200191505060405180910390f35b348015610f5757600080fd5b50611048600480360381019080803590602001908201803590602001908080601f0160208091040260200160405190810160405280939291908181526020018383808284378201915050505050509192919290803590602001908201803590602001908080601f0160208091040260200160405190810160405280939291908181526020018383808284378201915050505050509192919290803590602001908201803590602001908080601f016020809104026020016040519081016040528093929190818152602001838380828437820191505050505050919291929080359060200190929190505050612b63565b005b34801561105657600080fd5b5061108b600480360381019080803573ffffffffffffffffffffffffffffffffffffffff169060200190929190505050612c9e565b005b34801561109957600080fd5b506110b860048036038101908080359060200190929190505050612d57565b604051808273ffffffffffffffffffffffffffffffffffffffff1673ffffffffffffffffffffffffffffffffffffffff16815260200191505060405180910390f35b60001515600760003373ffffffffffffffffffffffffffffffffffffffff1673ffffffffffffffffffffffffffffffffffffffff16815260200190815260200160002060040160009054906101000a900460ff16151514151561115c57600080fd5b60011515600760003373ffffffffffffffffffffffffffffffffffffffff1673ffffffffffffffffffffffffffffffffffffffff16815260200190815260200160002060040160019054906101000a900460ff1615151415156111be57600080fd5b60011515600360009054906101000a900460ff1615151415156111e057600080fd5b60001515600360019054906101000a900460ff16151514151561120257600080fd5b600160056000838152602001908152602001600020600301600082825401925050819055506001600760003373ffffffffffffffffffffffffffffffffffffffff1673ffffffffffffffffffffffffffffffffffffffff16815260200190815260200160002060040160006101000a81548160ff02191690831515021790555050565b6000809054906101000a900473ffffffffffffffffffffffffffffffffffffffff1673ffffffffffffffffffffffffffffffffffffffff163373ffffffffffffffffffffffffffffffffffffffff161415156112e057600080fd5b6001600760008373ffffffffffffffffffffffffffffffffffffffff1673ffffffffffffffffffffffffffffffffffffffff16815260200190815260200160002060040160016101000a81548160ff02191690831515021790555050565b6000600254905090565b600c6020528060005260406000206000915090508060000154908060010160009054906101000a900460ff1690806002015490806003018054600181600116156101000203166002900480601f0160208091040260200160405190810160405280929190818152602001828054600181600116156101000203166002900480156114135780601f106113e857610100808354040283529160200191611413565b820191906000526020600020905b8154815290600101906020018083116113f657829003601f168201915b5050505050905084565b606080600080600080604080519080825280601f01601f1916602001820160405280156114595781602001602082028038833980820191505090505b509450600093505b602084101561160857868460208110151561147857fe5b1a7f01000000000000000000000000000000000000000000000000000000000000000292506010837f0100000000000000000000000000000000000000000000000000000000000000900460ff168115156114cf57fe5b047f0100000000000000000000000000000000000000000000000000000000000000029150817f01000000000000000000000000000000000000000000000000000000000000009004601002837f01000000000000000000000000000000000000000000000000000000000000009004037f010000000000000000000000000000000000000000000000000000000000000002905061156d826127a0565b856002860281518110151561157e57fe5b9060200101907effffffffffffffffffffffffffffffffffffffffffffffffffffffffffffff1916908160001a9053506115b7816127a0565b85600160028702018151811015156115cb57fe5b9060200101907effffffffffffffffffffffffffffffffffffffffffffffffffffffffffffff1916908160001a9053508380600101945050611461565b8495505050505050919050565b60096020528060005260406000206000915090508060000160009054906101000a900473ffffffffffffffffffffffffffffffffffffffff1690806001018054600181600116156101000203166002900480601f0160208091040260200160405190810160405280929190818152602001828054600181600116156101000203166002900480156116e75780601f106116bc576101008083540402835291602001916116e7565b820191906000526020600020905b8154815290600101906020018083116116ca57829003601f168201915b505050505090806002018054600181600116156101000203166002900480601f0160208091040260200160405190810160405280929190818152602001828054600181600116156101000203166002900480156117855780601f1061175a57610100808354040283529160200191611785565b820191906000526020600020905b81548152906001019060200180831161176857829003601f168201915b505050505090806003018054600181600116156101000203166002900480601f0160208091040260200160405190810160405280929190818152602001828054600181600116156101000203166002900480156118235780601f106117f857610100808354040283529160200191611823565b820191906000526020600020905b81548152906001019060200180831161180657829003601f168201915b505050505090806004018054600181600116156101000203166002900480601f0160208091040260200160405190810160405280929190818152602001828054600181600116156101000203166002900480156118c15780601f10611896576101008083540402835291602001916118c1565b820191906000526020600020905b8154815290600101906020018083116118a457829003601f168201915b505050505090806005018054600181600116156101000203166002900480601f01602080910402602001604051908101604052809291908181526020018280546001816001161561010002031660029004801561195f5780601f106119345761010080835404028352916020019161195f565b820191906000526020600020905b81548152906001019060200180831161194257829003601f168201915b5050505050908060060160009054906101000a900460ff16905087565b6000600154905090565b600b6020528060005260406000206000915090508060000154908060010160009054906101000a900460ff1690806002015490806003018054600181600116156101000203166002900480601f016020809104026020016040519081016040528092919081815260200182805460018160011615610100020316600290048015611a515780601f10611a2657610100808354040283529160200191611a51565b820191906000526020600020905b815481529060010190602001808311611a3457829003601f168201915b5050505050905084565b611a63612d95565b6000611a6d612d95565b6000611a77612d95565b6000600960003373ffffffffffffffffffffffffffffffffffffffff1673ffffffffffffffffffffffffffffffffffffffff16815260200190815260200160002060060160009054906101000a900460ff161515611ad457600080fd5b600c60008a6000191660001916815260200190815260200160002060010160009054906101000a900460ff161515611c2a576001600a600082825401925050819055506080604051908101604052806001600a5403815260200160011515815260200160008152602001611b478b61141d565b815250955085600b60006001600a540381526020019081526020016000206000820151816000015560208201518160010160006101000a81548160ff021916908315150217905550604082015181600201556060820151816003019080519060200190611bb5929190612dc0565b5090505085600c60008b600019166000191681526020019081526020016000206000820151816000015560208201518160010160006101000a81548160ff021916908315150217905550604082015181600201556060820151816003019080519060200190611c25929190612dc0565b509050505b600c60008a600019166000191681526020019081526020016000206000015494506001600c60008b6000191660001916815260200190815260200160002060020160008282540192505081905550600c6000896000191660001916815260200190815260200160002060010160009054906101000a900460ff161515611dce576001600a600082825401925050819055506080604051908101604052806001600a5403815260200160011515815260200160008152602001611ceb8a61141d565b815250935083600b60006001600a540381526020019081526020016000206000820151816000015560208201518160010160006101000a81548160ff021916908315150217905550604082015181600201556060820151816003019080519060200190611d59929190612dc0565b5090505083600c60008a600019166000191681526020019081526020016000206000820151816000015560208201518160010160006101000a81548160ff021916908315150217905550604082015181600201556060820151816003019080519060200190611dc9929190612dc0565b509050505b600c600089600019166000191681526020019081526020016000206000015492506001600c60008a6000191660001916815260200190815260200160002060020160008282540192505081905550600c6000886000191660001916815260200190815260200160002060010160009054906101000a900460ff161515611f72576001600a600082825401925050819055506080604051908101604052806001600a5403815260200160011515815260200160008152602001611e8f8961141d565b815250915081600b60006001600a540381526020019081526020016000206000820151816000015560208201518160010160006101000a81548160ff021916908315150217905550604082015181600201556060820151816003019080519060200190611efd929190612dc0565b5090505081600c600089600019166000191681526020019081526020016000206000820151816000015560208201518160010160006101000a81548160ff021916908315150217905550604082015181600201556060820151816003019080519060200190611f6d929190612dc0565b509050505b600c600088600019166000191681526020019081526020016000206000015490506002600c6000896000191660001916815260200190815260200160002060020160008282540192505081905550600d6000868152602001908152602001600020839080600181540180825580915050906001820390600052602060002001600090919290919091505550600d6000848152602001908152602001600020859080600181540180825580915050906001820390600052602060002001600090919290919091505550600d6000828152602001908152602001600020859080600181540180825580915050906001820390600052602060002001600090919290919091505550600d6000828152602001908152602001600020839080600181540180825580915050906001820390600052602060002001600090919290919091505550505050505050505050565b60076020528060005260406000206000915090508060000160009054906101000a900473ffffffffffffffffffffffffffffffffffffffff1690806001018054600181600116156101000203166002900480601f0160208091040260200160405190810160405280929190818152602001828054600181600116156101000203166002900480156121915780601f1061216657610100808354040283529160200191612191565b820191906000526020600020905b81548152906001019060200180831161217457829003601f168201915b505050505090806002018054600181600116156101000203166002900480601f01602080910402602001604051908101604052809291908181526020018280546001816001161561010002031660029004801561222f5780601f106122045761010080835404028352916020019161222f565b820191906000526020600020905b81548152906001019060200180831161221257829003601f168201915b5050505050908060030154908060040160009054906101000a900460ff16908060040160019054906101000a900460ff16905086565b6000809054906101000a900473ffffffffffffffffffffffffffffffffffffffff1673ffffffffffffffffffffffffffffffffffffffff163373ffffffffffffffffffffffffffffffffffffffff161415156122c057600080fd5b6001600360016101000a81548160ff0219169083151502179055506000600360006101000a81548160ff021916908315150217905550565b6005602052806000526040600020600091509050806000018054600181600116156101000203166002900480601f0160208091040260200160405190810160405280929190818152602001828054600181600116156101000203166002900480156123a45780601f10612379576101008083540402835291602001916123a4565b820191906000526020600020905b81548152906001019060200180831161238757829003601f168201915b505050505090806001018054600181600116156101000203166002900480601f0160208091040260200160405190810160405280929190818152602001828054600181600116156101000203166002900480156124425780601f1061241757610100808354040283529160200191612442565b820191906000526020600020905b81548152906001019060200180831161242557829003601f168201915b505050505090806002018054600181600116156101000203166002900480601f0160208091040260200160405190810160405280929190818152602001828054600181600116156101000203166002900480156124e05780601f106124b5576101008083540402835291602001916124e0565b820191906000526020600020905b8154815290600101906020018083116124c357829003601f168201915b5050505050908060030154908060040154908060050154905086565b6000809054906101000a900473ffffffffffffffffffffffffffffffffffffffff1673ffffffffffffffffffffffffffffffffffffffff163373ffffffffffffffffffffffffffffffffffffffff1614151561255757600080fd5b6001600360006101000a81548160ff0219169083151502179055506000600360016101000a81548160ff021916908315150217905550565b612597612e40565b60e0604051908101604052803373ffffffffffffffffffffffffffffffffffffffff16815260200187815260200186815260200185815260200184815260200183815260200160001515815250905080600960003373ffffffffffffffffffffffffffffffffffffffff1673ffffffffffffffffffffffffffffffffffffffff16815260200190815260200160002060008201518160000160006101000a81548173ffffffffffffffffffffffffffffffffffffffff021916908373ffffffffffffffffffffffffffffffffffffffff1602179055506020820151816001019080519060200190612689929190612dc0565b5060408201518160020190805190602001906126a6929190612dc0565b5060608201518160030190805190602001906126c3929190612dc0565b5060808201518160040190805190602001906126e0929190612dc0565b5060a08201518160050190805190602001906126fd929190612dc0565b5060c08201518160060160006101000a81548160ff02191690831515021790555090505060083390806001815401808255809150509060018203906000526020600020016000909192909190916101000a81548173ffffffffffffffffffffffffffffffffffffffff021916908373ffffffffffffffffffffffffffffffffffffffff160217905550506001600460008282540192505081905550505050505050565b6000600a7f010000000000000000000000000000000000000000000000000000000000000002827effffffffffffffffffffffffffffffffffffffffffffffffffffffffffffff1916101561283f576030827f01000000000000000000000000000000000000000000000000000000000000009004017f010000000000000000000000000000000000000000000000000000000000000002905061288b565b6057827f01000000000000000000000000000000000000000000000000000000000000009004017f01000000000000000000000000000000000000000000000000000000000000000290505b919050565b60088181548110151561289f57fe5b906000526020600020016000915054906101000a900473ffffffffffffffffffffffffffffffffffffffff1681565b6000600454905090565b6128e0612e96565b60c0604051908101604052803373ffffffffffffffffffffffffffffffffffffffff16815260200185815260200184815260200183815260200160001515815260200160001515815250905080600760003373ffffffffffffffffffffffffffffffffffffffff1673ffffffffffffffffffffffffffffffffffffffff16815260200190815260200160002060008201518160000160006101000a81548173ffffffffffffffffffffffffffffffffffffffff021916908373ffffffffffffffffffffffffffffffffffffffff16021790555060208201518160010190805190602001906129cf929190612dc0565b5060408201518160020190805190602001906129ec929190612dc0565b506060820151816003015560808201518160040160006101000a81548160ff02191690831515021790555060a08201518160040160016101000a81548160ff02191690831515021790555090505060063390806001815401808255809150509060018203906000526020600020016000909192909190916101000a81548173ffffffffffffffffffffffffffffffffffffffff021916908373ffffffffffffffffffffffffffffffffffffffff16021790555050600160026000828254019250508190555050505050565b60008060009054906101000a900473ffffffffffffffffffffffffffffffffffffffff16905090565b6000809054906101000a900473ffffffffffffffffffffffffffffffffffffffff1681565b6000600360019054906101000a900460ff16905090565b600d60205281600052604060002081815481101515612b3757fe5b90600052602060002001600091509150505481565b6000600360009054906101000a900460ff16905090565b612b6b612ee7565b6000809054906101000a900473ffffffffffffffffffffffffffffffffffffffff1673ffffffffffffffffffffffffffffffffffffffff163373ffffffffffffffffffffffffffffffffffffffff16141515612bc657600080fd5b60c060405190810160405280868152602001858152602001848152602001600081526020018381526020016001548152509050806005600060015481526020019081526020016000206000820151816000019080519060200190612c2b929190612dc0565b506020820151816001019080519060200190612c48929190612dc0565b506040820151816002019080519060200190612c65929190612dc0565b50606082015181600301556080820151816004015560a08201518160050155905050600180600082825401925050819055505050505050565b6000809054906101000a900473ffffffffffffffffffffffffffffffffffffffff1673ffffffffffffffffffffffffffffffffffffffff163373ffffffffffffffffffffffffffffffffffffffff16141515612cf957600080fd5b6001600960008373ffffffffffffffffffffffffffffffffffffffff1673ffffffffffffffffffffffffffffffffffffffff16815260200190815260200160002060060160006101000a81548160ff02191690831515021790555050565b600681815481101515612d6657fe5b906000526020600020016000915054906101000a900473ffffffffffffffffffffffffffffffffffffffff1681565b6080604051908101604052806000815260200160001515815260200160008152602001606081525090565b828054600181600116156101000203166002900490600052602060002090601f016020900481019282601f10612e0157805160ff1916838001178555612e2f565b82800160010185558215612e2f579182015b82811115612e2e578251825591602001919060010190612e13565b5b509050612e3c9190612f1e565b5090565b60e060405190810160405280600073ffffffffffffffffffffffffffffffffffffffff16815260200160608152602001606081526020016060815260200160608152602001606081526020016000151581525090565b60c060405190810160405280600073ffffffffffffffffffffffffffffffffffffffff1681526020016060815260200160608152602001600081526020016000151581526020016000151581525090565b60c0604051908101604052806060815260200160608152602001606081526020016000815260200160008152602001600081525090565b612f4091905b80821115612f3c576000816000905550600101612f24565b5090565b905600a165627a7a72305820c0e207dddf5b404f93e4dd463d50cbeee68fc1812b61bde997f8b4bbce40570d0029",
  "source": "// SPDX-License-Identifier: GPL-3.0\npragma solidity ^0.4.24;\n// pragma experimental ABIEncoderV2;\n\ncontract MasoomContract {\n\n    // comment down\n    address public owner;\n    uint candidateCount;\n\n    uint voterCount;\n\n    bool start;\n    bool end;\n    // comment up\n\n    uint doctorCount;\n\n    // Constructor\n    constructor() public {\n        owner = msg.sender;\n        // comment down\n        candidateCount = 0;\n        voterCount = 0;\n        start = false;\n        end = false;\n        // comment up\n        doctorCount = 0;\n    }\n\n    function getOwner() public view returns(address) {\n        return owner;\n    }\n\n    // Only Admin can access\n    modifier onlyAdmin() {\n        require(msg.sender == owner);\n        _;\n    }\n\n    struct Candidate{\n        string name;\n        string party;\n        string manifesto;\n        uint voteCount;\n        uint constituency;\n        uint candidateId;\n    }\n\n    mapping(uint => Candidate) public candidateDetails;\n\n    // Only admin can add candidate\n    function addCandidate(string _name, string _party, string _manifesto, uint _constituency) public onlyAdmin {\n        Candidate memory newCandidate = Candidate({\n           name : _name,\n           party : _party,\n           manifesto : _manifesto,\n           voteCount : 0,\n           constituency : _constituency,\n           candidateId : candidateCount\n        });\n\n        candidateDetails[candidateCount] = newCandidate;\n        candidateCount += 1;\n    }\n\n    // get total number of candidates\n    function getCandidateNumber() public view returns (uint) {\n        return candidateCount;\n    }\n\n    struct Voter{\n        address voterAddress;\n        string name;\n        string aadhar;\n        uint constituency;\n        bool hasVoted;\n        bool isVerified;\n    }\n\n    address[] public voters;\n    mapping(address => Voter) public voterDetails;\n\n    // request to be added as voter\n    function requestVoter(string _name, string _aadhar, uint _constituency) public {\n        Voter memory newVoter = Voter({ \n           voterAddress : msg.sender,\n           name : _name,\n           aadhar : _aadhar,\n           constituency : _constituency,\n           hasVoted : false,\n           isVerified : false\n        });\n\n        voterDetails[msg.sender] = newVoter;\n        voters.push(msg.sender);\n        voterCount += 1;\n    }\n\n    // get total number of voters\n    function getVoterCount() public view returns (uint) {\n        return voterCount;\n    }\n\n    function verifyVoter(address _address) public onlyAdmin {\n        voterDetails[_address].isVerified = true;\n    }\n\n    function vote(uint candidateId) public{\n        require(voterDetails[msg.sender].hasVoted == false);\n        require(voterDetails[msg.sender].isVerified == true);\n        require(start == true);\n        require(end == false);\n\n        candidateDetails[candidateId].voteCount += 1;\n        voterDetails[msg.sender].hasVoted = true;\n    }\n\n    function startElection() public onlyAdmin {\n        start = true;\n        end = false;\n    }\n\n    function endElection() public onlyAdmin {\n        end = true;\n        start = false;\n    }\n\n    function getStart() public view returns (bool) {\n        return start;\n    }\n\n    function getEnd() public view returns (bool) {\n        return end;\n    }\n\n\n\n\n    struct Doctor{\n        address doctorAddress;\n        string name;\n        string registerationId;\n        string hospital;\n        string college;\n        string field;\n        bool isVerified;\n    }\n\n    address[] public doctors;\n    mapping(address => Doctor) public doctorDetails;\n\n    function requestDoctor(string _name, string _registerationId, string _hospital, string _college, string _field) public {\n        Doctor memory newDoctor = Doctor({ \n           doctorAddress : msg.sender,\n           name : _name,\n           registerationId : _registerationId,\n           hospital : _hospital,\n           college : _college,\n           field : _field,\n           isVerified : false\n        });\n\n        doctorDetails[msg.sender] = newDoctor;\n        doctors.push(msg.sender);\n        doctorCount += 1;\n    }\n\n    // get total number of voters\n    function getDoctorCount() public view returns (uint) {\n        return doctorCount;\n    }\n\n    function verifyDoctor(address _address) public onlyAdmin {\n        doctorDetails[_address].isVerified = true;\n    }\n\n    struct list{\n        uint position;\n        bool exists;\n        uint size;\n        string name;\n    }\n\n    uint nameCount = 0;\n    mapping(uint => list) public getNames;\n    mapping(bytes32 => list) public names;\n    mapping(uint => uint[]) public array;\n\n    function addAlternative(bytes32 _med1, bytes32 _med2, bytes32 _disease) public {\n        require(doctorDetails[msg.sender].isVerified);\n\n        if(!names[_med1].exists){\n            nameCount += 1;\n            list memory newList1 = list({ position : nameCount - 1 , exists : true, size : 0, name : bytes32string(_med1)});\n            getNames[nameCount - 1 ] = newList1;\n            names[_med1] = newList1;\n        }\n\n        uint a = names[_med1].position;\n        names[_med1].size += 1;\n\n        if(!names[_med2].exists){\n            nameCount += 1;\n            list memory newList2 = list({ position : nameCount - 1 , exists : true, size : 0, name : bytes32string(_med2)});\n            getNames[nameCount - 1 ] = newList2;\n            names[_med2] = newList2;\n        }\n\n        uint b = names[_med2].position;\n        names[_med2].size += 1;\n\n        if(!names[_disease].exists){\n            nameCount += 1;\n            list memory newList3 = list({ position : nameCount - 1 , exists : true , size : 0, name : bytes32string(_disease)});\n            getNames[nameCount - 1 ] = newList3;\n            names[_disease] = newList3;\n        }\n\n        uint c = names[_disease].position;\n        names[_disease].size += 2;\n\n        array[a].push(b);\n        array[b].push(a);\n        array[c].push(a);\n        array[c].push(b);\n    }\n    \n    function char(byte b) public view returns (byte c) {\n        if (b < 10) return byte(uint8(b) + 0x30);\n        else return byte(uint8(b) + 0x57);\n    }\n\n\n    function bytes32string(bytes32 b32) public view returns (string out) {\n        bytes memory s = new bytes(64);\n\n        for (uint i = 0; i < 32; i++) {\n            byte b = byte(b32[i]);\n            byte hi = byte(uint8(b) / 16);\n            byte lo = byte(uint8(b) - 16 * uint8(hi));\n            s[i*2] = char(hi);\n            s[i*2+1] = char(lo);\n        }\n\n        out = string(s);\n    }\n}",
  "sourcePath": "/home/arpit/Desktop/AltMeds/contracts/MasoomContract.sol",
  "compiler": {
    "name": "solc",
    "version": "0.4.24+commit.e67f0147.Emscripten.clang"
  },
  "schemaVersion": "3.2.0",
  "updatedAt": "2020-06-14T07:08:49.644Z",
  "networkType": "ethereum",
  "devdoc": {
    "methods": {}
  },
  "userdoc": {
    "methods": {}
  }
}